:100000000C942A000C943F000C943F000C943F0089
:100010000C943F000C943F000C943F000C943F0064
:100020000C943F000C943F000C943F000C943F0054
:100030000C943F000C943F000C943F000C943F0044
:100040000C943F000C943F000C943F000C943F0034
:100050000C943F0011241FBECFE5D8E0DEBFCDBF1A
:1000600010E0A0E6B0E0E4E0F5E002C005900D92FB
:10007000A838B107D9F70E94B3000C9480020C9401
:10008000000080E00E947D0081E00E947D0082E00F
:100090000E947D0083E00C947D0080E00E948F0030
:1000A00081E00E948F0082E00E948F0083E00C9428
:1000B0008F0080E00E947D0082E00E947D0081E050
:1000C0000E948F0083E00C948F0080E00E948F00DC
:1000D00082E00E948F0081E00E947D0083E00C940A
:1000E0007D0080E00E94A10081E00E94A10082E0EA
:1000F0000E94A10083E00C94A100CF93DF93C82F4E
:10010000D0E0CC0FDD1FC05ADF4F61E088810E9434
:10011000EC0060E08981DF91CF910C94EC00CF93EB
:10012000DF93C82FD0E0CC0FDD1FC05ADF4F60E057
:1001300088810E94EC0061E08981DF91CF910C946D
:10014000EC00CF93DF93C82FD0E0CC0FDD1FC05A57
:10015000DF4F60E088810E94EC0060E08981DF91E0
:10016000CF910C94EC000E94A20188E10E946D01E5
:10017000811108C00E94410088E10E946D0188231E
:10018000D9F3F3CF89E10E946D01811108C00E946B
:100190004D0089E10E946D018823D9F3E6CF8AE101
:1001A0000E946D01811108C00E9465008AE10E94D1
:1001B0006D018823D9F3D9CF8BE10E946D018111A4
:1001C00008C00E9459008BE10E946D018823D9F379
:1001D000CCCF0E947100C9CF982F96959695969591
:1001E00087706130C1F5913091F028F09230D9F0EC
:1001F000933029F108954BB321E030E0B90102C0FA
:10020000660F771F8A95E2F7CB01842B3AC048B37B
:1002100021E030E0B90102C0660F771F8A95E2F74E
:10022000CB01842B3CC045B321E030E0B90102C0D2
:10023000660F771F8A95E2F7CB01842B3EC042B34D
:1002400021E030E0B90102C0660F771F8A95E2F71E
:10025000CB01842B40C061113FC09130A1F028F048
:100260009230F9F0933059F108954BB321E030E02A
:10027000B90102C0660F771F8A95E2F7CB0180951E
:1002800084238BBB089548B321E030E0B90102C05C
:10029000660F771F8A95E2F7CB018095842388BB90
:1002A000089545B321E030E0B90102C0660F771F21
:1002B0008A95E2F7CB018095842385BB089542B3EC
:1002C00021E030E0B90102C0660F771F8A95E2F79E
:1002D000CB018095842382BB0895282F27708695B3
:1002E000869586958130C1F070F08230F9F08330C8
:1002F00039F530B381E090E001C0880F2A95EAF724
:10030000832B80BB089589B390E002C095958795B3
:100310002A95E2F78170089536B381E090E001C03C
:10032000880F2A95EAF7832B86BB089533B381E0C3
:1003300090E001C0880F2A95EAF7832B83BB0895CC
:1003400080E00895E8E6F0E040E081E090E051913F
:10035000342F369536953695242F2770513009F471
:1003600043C020F0523009F482C0C5C0323001F1E0
:10037000333061F1313071F05AB3BC0102C0660F05
:10038000771F2A95E2F79B01352F322B3ABB3BB3FF
:1003900020953DC057B3BC0102C0660F771F2A9558
:1003A000E2F79B01352F322B37BB38B320953EC087
:1003B00054B3BC0102C0660F771F2A95E2F79B0178
:1003C000352F322B34BB35B320953FC051B3BC0120
:1003D00002C0660F771F2A95E2F79B01352F322B5B
:1003E00031BB32B3209541C0323011F1333081F14D
:1003F000313079F05AB3BC0102C0660F771F2A95DD
:10040000E2F79B012095352F32233ABB3BB32323E0
:1004100042C057B3BC0102C0660F771F2A95E2F7AE
:100420009B012095352F322337BB38B3232343C09C
:1004300054B3BC0102C0660F771F2A95E2F79B01F7
:100440002095352F322334BB35B3232325BB53C02E
:1004500051B3BC0102C0660F771F2A95E2F79B01DA
:100460002095352F322331BB32B3232343C03230A2
:1004700021F1333089F1313081F05AB3BC0102C02F
:10048000660F771F2A95E2F79B01362F30953523AB
:100490003ABB3BB3232B2BBB2EC057B3BC0102C0CE
:1004A000660F771F2A95E2F79B01362F309535238B
:1004B00037BB38B3232B28BB1EC054B3BC0102C0CA
:1004C000660F771F2A95E2F79B01362F309535236B
:1004D00034BB35B3232BBACF51B3BC0102C0660F76
:1004E000771F2A95E2F79B01362F3095352331BBD4
:1004F00032B3232B22BB4F5F403209F028CF08953F
:04050000F894FFCF9D
:100504001011121314151617020000000000000049
:1005140000000000000000000000000000000000D7
:080524000202020202000000C5
:00000001FF
